{
  "contractName": "PizzaSupreme",
  "abi": [
    {
      "inputs": [
        {
          "internalType": "address",
          "name": "_proxyRegistryAddress",
          "type": "address"
        }
      ],
      "stateMutability": "nonpayable",
      "type": "constructor"
    },
    {
      "anonymous": false,
      "inputs": [
        {
          "indexed": true,
          "internalType": "address",
          "name": "owner",
          "type": "address"
        },
        {
          "indexed": true,
          "internalType": "address",
          "name": "approved",
          "type": "address"
        },
        {
          "indexed": true,
          "internalType": "uint256",
          "name": "tokenId",
          "type": "uint256"
        }
      ],
      "name": "Approval",
      "type": "event"
    },
    {
      "anonymous": false,
      "inputs": [
        {
          "indexed": true,
          "internalType": "address",
          "name": "owner",
          "type": "address"
        },
        {
          "indexed": true,
          "internalType": "address",
          "name": "operator",
          "type": "address"
        },
        {
          "indexed": false,
          "internalType": "bool",
          "name": "approved",
          "type": "bool"
        }
      ],
      "name": "ApprovalForAll",
      "type": "event"
    },
    {
      "anonymous": false,
      "inputs": [
        {
          "indexed": true,
          "internalType": "address",
          "name": "previousOwner",
          "type": "address"
        },
        {
          "indexed": true,
          "internalType": "address",
          "name": "newOwner",
          "type": "address"
        }
      ],
      "name": "OwnershipTransferred",
      "type": "event"
    },
    {
      "anonymous": false,
      "inputs": [
        {
          "indexed": true,
          "internalType": "address",
          "name": "from",
          "type": "address"
        },
        {
          "indexed": true,
          "internalType": "address",
          "name": "to",
          "type": "address"
        },
        {
          "indexed": true,
          "internalType": "uint256",
          "name": "tokenId",
          "type": "uint256"
        }
      ],
      "name": "Transfer",
      "type": "event"
    },
    {
      "inputs": [],
      "name": "MAX_SUPPLY",
      "outputs": [
        {
          "internalType": "uint256",
          "name": "",
          "type": "uint256"
        }
      ],
      "stateMutability": "view",
      "type": "function",
      "constant": true
    },
    {
      "inputs": [
        {
          "internalType": "address",
          "name": "to",
          "type": "address"
        },
        {
          "internalType": "uint256",
          "name": "tokenId",
          "type": "uint256"
        }
      ],
      "name": "approve",
      "outputs": [],
      "stateMutability": "nonpayable",
      "type": "function"
    },
    {
      "inputs": [
        {
          "internalType": "address",
          "name": "owner",
          "type": "address"
        }
      ],
      "name": "balanceOf",
      "outputs": [
        {
          "internalType": "uint256",
          "name": "",
          "type": "uint256"
        }
      ],
      "stateMutability": "view",
      "type": "function",
      "constant": true
    },
    {
      "inputs": [
        {
          "internalType": "uint256",
          "name": "_tokenId",
          "type": "uint256"
        }
      ],
      "name": "burn",
      "outputs": [],
      "stateMutability": "nonpayable",
      "type": "function"
    },
    {
      "inputs": [
        {
          "internalType": "address",
          "name": "_to",
          "type": "address"
        }
      ],
      "name": "factoryMint",
      "outputs": [],
      "stateMutability": "nonpayable",
      "type": "function"
    },
    {
      "inputs": [
        {
          "internalType": "uint256",
          "name": "tokenId",
          "type": "uint256"
        }
      ],
      "name": "getApproved",
      "outputs": [
        {
          "internalType": "address",
          "name": "",
          "type": "address"
        }
      ],
      "stateMutability": "view",
      "type": "function",
      "constant": true
    },
    {
      "inputs": [
        {
          "internalType": "address",
          "name": "owner",
          "type": "address"
        },
        {
          "internalType": "address",
          "name": "operator",
          "type": "address"
        }
      ],
      "name": "isApprovedForAll",
      "outputs": [
        {
          "internalType": "bool",
          "name": "",
          "type": "bool"
        }
      ],
      "stateMutability": "view",
      "type": "function",
      "constant": true
    },
    {
      "inputs": [
        {
          "internalType": "address",
          "name": "_to",
          "type": "address"
        }
      ],
      "name": "mintTo",
      "outputs": [],
      "stateMutability": "nonpayable",
      "type": "function"
    },
    {
      "inputs": [],
      "name": "name",
      "outputs": [
        {
          "internalType": "string",
          "name": "",
          "type": "string"
        }
      ],
      "stateMutability": "view",
      "type": "function",
      "constant": true
    },
    {
      "inputs": [],
      "name": "owner",
      "outputs": [
        {
          "internalType": "address",
          "name": "",
          "type": "address"
        }
      ],
      "stateMutability": "view",
      "type": "function",
      "constant": true
    },
    {
      "inputs": [
        {
          "internalType": "uint256",
          "name": "tokenId",
          "type": "uint256"
        }
      ],
      "name": "ownerOf",
      "outputs": [
        {
          "internalType": "address",
          "name": "",
          "type": "address"
        }
      ],
      "stateMutability": "view",
      "type": "function",
      "constant": true
    },
    {
      "inputs": [],
      "name": "renounceOwnership",
      "outputs": [],
      "stateMutability": "nonpayable",
      "type": "function"
    },
    {
      "inputs": [
        {
          "internalType": "address",
          "name": "from",
          "type": "address"
        },
        {
          "internalType": "address",
          "name": "to",
          "type": "address"
        },
        {
          "internalType": "uint256",
          "name": "tokenId",
          "type": "uint256"
        }
      ],
      "name": "safeTransferFrom",
      "outputs": [],
      "stateMutability": "nonpayable",
      "type": "function"
    },
    {
      "inputs": [
        {
          "internalType": "address",
          "name": "from",
          "type": "address"
        },
        {
          "internalType": "address",
          "name": "to",
          "type": "address"
        },
        {
          "internalType": "uint256",
          "name": "tokenId",
          "type": "uint256"
        },
        {
          "internalType": "bytes",
          "name": "_data",
          "type": "bytes"
        }
      ],
      "name": "safeTransferFrom",
      "outputs": [],
      "stateMutability": "nonpayable",
      "type": "function"
    },
    {
      "inputs": [
        {
          "internalType": "address",
          "name": "operator",
          "type": "address"
        },
        {
          "internalType": "bool",
          "name": "approved",
          "type": "bool"
        }
      ],
      "name": "setApprovalForAll",
      "outputs": [],
      "stateMutability": "nonpayable",
      "type": "function"
    },
    {
      "inputs": [
        {
          "internalType": "address",
          "name": "_factoryAddress",
          "type": "address"
        }
      ],
      "name": "setFactoryAddress",
      "outputs": [],
      "stateMutability": "nonpayable",
      "type": "function"
    },
    {
      "inputs": [
        {
          "internalType": "bytes4",
          "name": "interfaceId",
          "type": "bytes4"
        }
      ],
      "name": "supportsInterface",
      "outputs": [
        {
          "internalType": "bool",
          "name": "",
          "type": "bool"
        }
      ],
      "stateMutability": "view",
      "type": "function",
      "constant": true
    },
    {
      "inputs": [],
      "name": "symbol",
      "outputs": [
        {
          "internalType": "string",
          "name": "",
          "type": "string"
        }
      ],
      "stateMutability": "view",
      "type": "function",
      "constant": true
    },
    {
      "inputs": [
        {
          "internalType": "uint256",
          "name": "index",
          "type": "uint256"
        }
      ],
      "name": "tokenByIndex",
      "outputs": [
        {
          "internalType": "uint256",
          "name": "",
          "type": "uint256"
        }
      ],
      "stateMutability": "view",
      "type": "function",
      "constant": true
    },
    {
      "inputs": [
        {
          "internalType": "address",
          "name": "owner",
          "type": "address"
        },
        {
          "internalType": "uint256",
          "name": "index",
          "type": "uint256"
        }
      ],
      "name": "tokenOfOwnerByIndex",
      "outputs": [
        {
          "internalType": "uint256",
          "name": "",
          "type": "uint256"
        }
      ],
      "stateMutability": "view",
      "type": "function",
      "constant": true
    },
    {
      "inputs": [
        {
          "internalType": "uint256",
          "name": "_tokenId",
          "type": "uint256"
        }
      ],
      "name": "tokenURI",
      "outputs": [
        {
          "internalType": "string",
          "name": "",
          "type": "string"
        }
      ],
      "stateMutability": "pure",
      "type": "function",
      "constant": true
    },
    {
      "inputs": [],
      "name": "totalSupply",
      "outputs": [
        {
          "internalType": "uint256",
          "name": "",
          "type": "uint256"
        }
      ],
      "stateMutability": "view",
      "type": "function",
      "constant": true
    },
    {
      "inputs": [
        {
          "internalType": "address",
          "name": "from",
          "type": "address"
        },
        {
          "internalType": "address",
          "name": "to",
          "type": "address"
        },
        {
          "internalType": "uint256",
          "name": "tokenId",
          "type": "uint256"
        }
      ],
      "name": "transferFrom",
      "outputs": [],
      "stateMutability": "nonpayable",
      "type": "function"
    },
    {
      "inputs": [
        {
          "internalType": "address",
          "name": "newOwner",
          "type": "address"
        }
      ],
      "name": "transferOwnership",
      "outputs": [],
      "stateMutability": "nonpayable",
      "type": "function"
    },
    {
      "inputs": [],
      "name": "baseTokenURI",
      "outputs": [
        {
          "internalType": "string",
          "name": "",
          "type": "string"
        }
      ],
      "stateMutability": "pure",
      "type": "function",
      "constant": true
    }
  ],
  "bytecode": "0x60806040526000600e553480156200001657600080fd5b5060405162001f7f38038062001f7f8339810160408190526200003991620001f4565b6040518060400160405280600c81526020016b50697a7a6153757072656d6560a01b81525060405180604001604052806003815260200162505a5360e81b8152508282828160009080519060200190620000959291906200014e565b508051620000ab9060019060208401906200014e565b505050620000c8620000c2620000f860201b60201c565b620000fc565b6122b8600c55600b80546001600160a01b0319166001600160a01b03929092169190911790555062000263915050565b3390565b600a80546001600160a01b038381166001600160a01b0319831681179093556040519116919082907f8be0079c531659141344cd1fd0a4f28419497f9722a3daafe3b4186f6b6457e090600090a35050565b8280546200015c9062000226565b90600052602060002090601f016020900481019282620001805760008555620001cb565b82601f106200019b57805160ff1916838001178555620001cb565b82800160010185558215620001cb579182015b82811115620001cb578251825591602001919060010190620001ae565b50620001d9929150620001dd565b5090565b5b80821115620001d95760008155600101620001de565b6000602082840312156200020757600080fd5b81516001600160a01b03811681146200021f57600080fd5b9392505050565b600181811c908216806200023b57607f821691505b602082108114156200025d57634e487b7160e01b600052602260045260246000fd5b50919050565b611d0c80620002736000396000f3fe608060405234801561001057600080fd5b50600436106101735760003560e01c80636352211e116100de57806395d89b4111610097578063c87b56dd11610071578063c87b56dd14610315578063d547cfb714610328578063e985e9c514610330578063f2fde38b1461034357600080fd5b806395d89b41146102e7578063a22cb465146102ef578063b88d4fde1461030257600080fd5b80636352211e1461028257806370a0823114610295578063715018a6146102a8578063755edd17146102b057806383c17c55146102c35780638da5cb5b146102d657600080fd5b806323b872dd1161013057806323b872dd1461021a5780632f745c591461022d57806332cb6b0c1461024057806342842e0e1461024957806342966c681461025c5780634f6ccce71461026f57600080fd5b806301ffc9a71461017857806306aba612146101a057806306fdde03146101b5578063081812fc146101ca578063095ea7b3146101f557806318160ddd14610208575b600080fd5b61018b6101863660046118fb565b610356565b60405190151581526020015b60405180910390f35b6101b36101ae366004611725565b610381565b005b6101bd61040e565b6040516101979190611a15565b6101dd6101d8366004611952565b6104a0565b6040516001600160a01b039091168152602001610197565b6101b36102033660046118cf565b610535565b6008545b604051908152602001610197565b6101b361022836600461177b565b61064b565b61020c61023b3660046118cf565b61067c565b61020c600c5481565b6101b361025736600461177b565b610712565b6101b361026a366004611952565b61072d565b61020c61027d366004611952565b610756565b6101dd610290366004611952565b6107e9565b61020c6102a3366004611725565b610860565b6101b36108e7565b6101b36102be366004611725565b61091d565b6101b36102d1366004611725565b61099b565b600a546001600160a01b03166101dd565b6101bd6109e7565b6101b36102fd36600461189c565b6109f6565b6101b36103103660046117bc565b610abb565b6101bd610323366004611952565b610af3565b6101bd610b2d565b61018b61033e366004611742565b610b4d565b6101b3610351366004611725565b610c1d565b60006001600160e01b0319821663780e9d6360e01b148061037b575061037b82610cb5565b92915050565b600d546001600160a01b031633146103ec5760405162461bcd60e51b815260206004820152602360248201527f4f776e61626c653a2063616c6c6572206973206e6f742074686520666163746f60448201526272792160e81b60648201526084015b60405180910390fd5b60006103f6610d05565b90506104028282610d1b565b61040a610e69565b5050565b60606000805461041d90611bc1565b80601f016020809104026020016040519081016040528092919081815260200182805461044990611bc1565b80156104965780601f1061046b57610100808354040283529160200191610496565b820191906000526020600020905b81548152906001019060200180831161047957829003601f168201915b5050505050905090565b6000818152600260205260408120546001600160a01b03166105195760405162461bcd60e51b815260206004820152602c60248201527f4552433732313a20617070726f76656420717565727920666f72206e6f6e657860448201526b34b9ba32b73a103a37b5b2b760a11b60648201526084016103e3565b506000908152600460205260409020546001600160a01b031690565b6000610540826107e9565b9050806001600160a01b0316836001600160a01b031614156105ae5760405162461bcd60e51b815260206004820152602160248201527f4552433732313a20617070726f76616c20746f2063757272656e74206f776e656044820152603960f91b60648201526084016103e3565b336001600160a01b03821614806105ca57506105ca8133610b4d565b61063c5760405162461bcd60e51b815260206004820152603860248201527f4552433732313a20617070726f76652063616c6c6572206973206e6f74206f7760448201527f6e6572206e6f7220617070726f76656420666f7220616c6c000000000000000060648201526084016103e3565b6106468383610e80565b505050565b6106553382610eee565b6106715760405162461bcd60e51b81526004016103e390611aaf565b610646838383610fbd565b600061068783610860565b82106106e95760405162461bcd60e51b815260206004820152602b60248201527f455243373231456e756d657261626c653a206f776e657220696e646578206f7560448201526a74206f6620626f756e647360a81b60648201526084016103e3565b506001600160a01b03919091166000908152600660209081526040808320938352929052205490565b61064683838360405180602001604052806000815250610abb565b33610737826107e9565b6001600160a01b03161461074a57600080fd5b61075381611168565b50565b600061076160085490565b82106107c45760405162461bcd60e51b815260206004820152602c60248201527f455243373231456e756d657261626c653a20676c6f62616c20696e646578206f60448201526b7574206f6620626f756e647360a01b60648201526084016103e3565b600882815481106107d7576107d7611c43565b90600052602060002001549050919050565b6000818152600260205260408120546001600160a01b03168061037b5760405162461bcd60e51b815260206004820152602960248201527f4552433732313a206f776e657220717565727920666f72206e6f6e657869737460448201526832b73a103a37b5b2b760b91b60648201526084016103e3565b60006001600160a01b0382166108cb5760405162461bcd60e51b815260206004820152602a60248201527f4552433732313a2062616c616e636520717565727920666f7220746865207a65604482015269726f206164647265737360b01b60648201526084016103e3565b506001600160a01b031660009081526003602052604090205490565b600a546001600160a01b031633146109115760405162461bcd60e51b81526004016103e390611a7a565b61091b600061120f565b565b600a546001600160a01b031633146109475760405162461bcd60e51b81526004016103e390611a7a565b600c5460085411156103ec5760405162461bcd60e51b815260206004820181905260248201527f507572636861736520776f756c6420657863656564206d617820737570706c7960448201526064016103e3565b600a546001600160a01b031633146109c55760405162461bcd60e51b81526004016103e390611a7a565b600d80546001600160a01b0319166001600160a01b0392909216919091179055565b60606001805461041d90611bc1565b6001600160a01b038216331415610a4f5760405162461bcd60e51b815260206004820152601960248201527f4552433732313a20617070726f766520746f2063616c6c65720000000000000060448201526064016103e3565b3360008181526005602090815260408083206001600160a01b03871680855290835292819020805460ff191686151590811790915590519081529192917f17307eab39ab6107e8899845ad3d59bd9653f200f220920489ca2b5937696c31910160405180910390a35050565b610ac53383610eee565b610ae15760405162461bcd60e51b81526004016103e390611aaf565b610aed84848484611261565b50505050565b6060610afd610b2d565b610b0683611294565b604051602001610b17929190611997565b6040516020818303038152906040529050919050565b60606040518060600160405280603c8152602001611c9b603c9139905090565b600b5460405163c455279160e01b81526001600160a01b03848116600483015260009281169190841690829063c45527919060240160206040518083038186803b158015610b9a57600080fd5b505afa158015610bae573d6000803e3d6000fd5b505050506040513d601f19601f82011682018060405250810190610bd29190611935565b6001600160a01b03161415610beb57600191505061037b565b6001600160a01b0380851660009081526005602090815260408083209387168352929052205460ff165b949350505050565b600a546001600160a01b03163314610c475760405162461bcd60e51b81526004016103e390611a7a565b6001600160a01b038116610cac5760405162461bcd60e51b815260206004820152602660248201527f4f776e61626c653a206e6577206f776e657220697320746865207a65726f206160448201526564647265737360d01b60648201526084016103e3565b6107538161120f565b60006001600160e01b031982166380ac58cd60e01b1480610ce657506001600160e01b03198216635b5e139f60e01b145b8061037b57506301ffc9a760e01b6001600160e01b031983161461037b565b600e54600090610d169060016113bd565b905090565b6001600160a01b038216610d715760405162461bcd60e51b815260206004820181905260248201527f4552433732313a206d696e7420746f20746865207a65726f206164647265737360448201526064016103e3565b6000818152600260205260409020546001600160a01b031615610dd65760405162461bcd60e51b815260206004820152601c60248201527f4552433732313a20746f6b656e20616c7265616479206d696e7465640000000060448201526064016103e3565b610de2600083836113d0565b6001600160a01b0382166000908152600360205260408120805460019290610e0b908490611b00565b909155505060008181526002602052604080822080546001600160a01b0319166001600160a01b03861690811790915590518392907fddf252ad1be2c89b69c2b068fc378daa952ba7f163c4a11628f55a4df523b3ef908290a45050565b600e8054906000610e7983611bfc565b9190505550565b600081815260046020526040902080546001600160a01b0319166001600160a01b0384169081179091558190610eb5826107e9565b6001600160a01b03167f8c5be1e5ebec7d5bd14f71427d1e84f3dd0314c0f7b2291e5b200ac8c7c3b92560405160405180910390a45050565b6000818152600260205260408120546001600160a01b0316610f675760405162461bcd60e51b815260206004820152602c60248201527f4552433732313a206f70657261746f7220717565727920666f72206e6f6e657860448201526b34b9ba32b73a103a37b5b2b760a11b60648201526084016103e3565b6000610f72836107e9565b9050806001600160a01b0316846001600160a01b03161480610fad5750836001600160a01b0316610fa2846104a0565b6001600160a01b0316145b80610c155750610c158185610b4d565b826001600160a01b0316610fd0826107e9565b6001600160a01b0316146110385760405162461bcd60e51b815260206004820152602960248201527f4552433732313a207472616e73666572206f6620746f6b656e2074686174206960448201526839903737ba1037bbb760b91b60648201526084016103e3565b6001600160a01b03821661109a5760405162461bcd60e51b8152602060048201526024808201527f4552433732313a207472616e7366657220746f20746865207a65726f206164646044820152637265737360e01b60648201526084016103e3565b6110a58383836113d0565b6110b0600082610e80565b6001600160a01b03831660009081526003602052604081208054600192906110d9908490611b7e565b90915550506001600160a01b0382166000908152600360205260408120805460019290611107908490611b00565b909155505060008181526002602052604080822080546001600160a01b0319166001600160a01b0386811691821790925591518493918716917fddf252ad1be2c89b69c2b068fc378daa952ba7f163c4a11628f55a4df523b3ef91a4505050565b6000611173826107e9565b9050611181816000846113d0565b61118c600083610e80565b6001600160a01b03811660009081526003602052604081208054600192906111b5908490611b7e565b909155505060008281526002602052604080822080546001600160a01b0319169055518391906001600160a01b038416907fddf252ad1be2c89b69c2b068fc378daa952ba7f163c4a11628f55a4df523b3ef908390a45050565b600a80546001600160a01b038381166001600160a01b0319831681179093556040519116919082907f8be0079c531659141344cd1fd0a4f28419497f9722a3daafe3b4186f6b6457e090600090a35050565b61126c848484610fbd565b61127884848484611488565b610aed5760405162461bcd60e51b81526004016103e390611a28565b6060816112b85750506040805180820190915260018152600360fc1b602082015290565b8160005b81156112e257806112cc81611bfc565b91506112db9050600a83611b3d565b91506112bc565b60008167ffffffffffffffff8111156112fd576112fd611c59565b6040519080825280601f01601f191660200182016040528015611327576020820181803683370190505b509050815b85156113b45761133d600182611b7e565b9050600061134c600a88611b3d565b61135790600a611b5f565b6113619088611b7e565b61136c906030611b18565b905060008160f81b90508084848151811061138957611389611c43565b60200101906001600160f81b031916908160001a9053506113ab600a89611b3d565b9750505061132c565b50949350505050565b60006113c98284611b00565b9392505050565b6001600160a01b03831661142b5761142681600880546000838152600960205260408120829055600182018355919091527ff3f7a9fe364faab93b216da50a3214154f22a0a2b415b23a84c8169e8b636ee30155565b61144e565b816001600160a01b0316836001600160a01b03161461144e5761144e8382611595565b6001600160a01b0382166114655761064681611632565b826001600160a01b0316826001600160a01b0316146106465761064682826116e1565b60006001600160a01b0384163b1561158a57604051630a85bd0160e11b81526001600160a01b0385169063150b7a02906114cc9033908990889088906004016119d8565b602060405180830381600087803b1580156114e657600080fd5b505af1925050508015611516575060408051601f3d908101601f1916820190925261151391810190611918565b60015b611570573d808015611544576040519150601f19603f3d011682016040523d82523d6000602084013e611549565b606091505b5080516115685760405162461bcd60e51b81526004016103e390611a28565b805181602001fd5b6001600160e01b031916630a85bd0160e11b149050610c15565b506001949350505050565b600060016115a284610860565b6115ac9190611b7e565b6000838152600760205260409020549091508082146115ff576001600160a01b03841660009081526006602090815260408083208584528252808320548484528184208190558352600790915290208190555b5060009182526007602090815260408084208490556001600160a01b039094168352600681528383209183525290812055565b60085460009061164490600190611b7e565b6000838152600960205260408120546008805493945090928490811061166c5761166c611c43565b90600052602060002001549050806008838154811061168d5761168d611c43565b60009182526020808320909101929092558281526009909152604080822084905585825281205560088054806116c5576116c5611c2d565b6001900381819060005260206000200160009055905550505050565b60006116ec83610860565b6001600160a01b039093166000908152600660209081526040808320868452825280832085905593825260079052919091209190915550565b60006020828403121561173757600080fd5b81356113c981611c6f565b6000806040838503121561175557600080fd5b823561176081611c6f565b9150602083013561177081611c6f565b809150509250929050565b60008060006060848603121561179057600080fd5b833561179b81611c6f565b925060208401356117ab81611c6f565b929592945050506040919091013590565b600080600080608085870312156117d257600080fd5b84356117dd81611c6f565b935060208501356117ed81611c6f565b925060408501359150606085013567ffffffffffffffff8082111561181157600080fd5b818701915087601f83011261182557600080fd5b81358181111561183757611837611c59565b604051601f8201601f19908116603f0116810190838211818310171561185f5761185f611c59565b816040528281528a602084870101111561187857600080fd5b82602086016020830137600060208483010152809550505050505092959194509250565b600080604083850312156118af57600080fd5b82356118ba81611c6f565b91506020830135801515811461177057600080fd5b600080604083850312156118e257600080fd5b82356118ed81611c6f565b946020939093013593505050565b60006020828403121561190d57600080fd5b81356113c981611c84565b60006020828403121561192a57600080fd5b81516113c981611c84565b60006020828403121561194757600080fd5b81516113c981611c6f565b60006020828403121561196457600080fd5b5035919050565b60008151808452611983816020860160208601611b95565b601f01601f19169290920160200192915050565b600083516119a9818460208801611b95565b8351908301906119bd818360208801611b95565b661898173539b7b760c91b9101908152600701949350505050565b6001600160a01b0385811682528416602082015260408101839052608060608201819052600090611a0b9083018461196b565b9695505050505050565b6020815260006113c9602083018461196b565b60208082526032908201527f4552433732313a207472616e7366657220746f206e6f6e20455243373231526560408201527131b2b4bb32b91034b6b83632b6b2b73a32b960711b606082015260800190565b6020808252818101527f4f776e61626c653a2063616c6c6572206973206e6f7420746865206f776e6572604082015260600190565b60208082526031908201527f4552433732313a207472616e736665722063616c6c6572206973206e6f74206f6040820152701ddb995c881b9bdc88185c1c1c9bdd9959607a1b606082015260800190565b60008219821115611b1357611b13611c17565b500190565b600060ff821660ff84168060ff03821115611b3557611b35611c17565b019392505050565b600082611b5a57634e487b7160e01b600052601260045260246000fd5b500490565b6000816000190483118215151615611b7957611b79611c17565b500290565b600082821015611b9057611b90611c17565b500390565b60005b83811015611bb0578181015183820152602001611b98565b83811115610aed5750506000910152565b600181811c90821680611bd557607f821691505b60208210811415611bf657634e487b7160e01b600052602260045260246000fd5b50919050565b6000600019821415611c1057611c10611c17565b5060010190565b634e487b7160e01b600052601160045260246000fd5b634e487b7160e01b600052603160045260246000fd5b634e487b7160e01b600052603260045260246000fd5b634e487b7160e01b600052604160045260246000fd5b6001600160a01b038116811461075357600080fd5b6001600160e01b03198116811461075357600080fdfe68747470733a2f2f73746f726167652e676f6f676c65617069732e636f6d2f6578616d706c655f6275636b65745f6e616d65353030302f50697a7a61a2646970667358221220f3ba804c91d66072701c733ec19d924c8dba0b6330c5f1d78fc0be494373765364736f6c63430008070033",
  "immutableReferences": {},
  "source": "// SPDX-License-Identifier: MIT\npragma solidity >=0.4.22 <0.9.0;\n\nimport \"./ERC721Tradable.sol\";\n\ncontract PizzaSupreme is ERC721Tradable{\n  constructor(address _proxyRegistryAddress) ERC721Tradable(\"PizzaSupreme\", \"PZS\", _proxyRegistryAddress) {  }\n\n  function baseTokenURI() override public pure returns (string memory) {\n        return \"https://storage.googleapis.com/example_bucket_name5000/Pizza\";\n  }\n\n}\n",
  "sourcePath": "/Users/marko/dev/pizzaParty/contracts/PizzaSupreme.sol",
  "compiler": {
    "name": "solc",
    "version": "0.8.7+commit.e28d00a7.Emscripten.clang"
  },
  "schemaVersion": "3.3.4",
  "updatedAt": "2021-08-25T14:47:31.856Z",
  "networkType": "ethereum",
  "devdoc": {
    "kind": "dev",
    "methods": {
      "approve(address,uint256)": {
        "details": "See {IERC721-approve}."
      },
      "balanceOf(address)": {
        "details": "See {IERC721-balanceOf}."
      },
      "getApproved(uint256)": {
        "details": "See {IERC721-getApproved}."
      },
      "mintTo(address)": {
        "details": "Mints a token to an address with a tokenURI.",
        "params": {
          "_to": "address of the future owner of the token"
        }
      },
      "name()": {
        "details": "See {IERC721Metadata-name}."
      },
      "owner()": {
        "details": "Returns the address of the current owner."
      },
      "ownerOf(uint256)": {
        "details": "See {IERC721-ownerOf}."
      },
      "renounceOwnership()": {
        "details": "Leaves the contract without owner. It will not be possible to call `onlyOwner` functions anymore. Can only be called by the current owner. NOTE: Renouncing ownership will leave the contract without an owner, thereby removing any functionality that is only available to the owner."
      },
      "safeTransferFrom(address,address,uint256)": {
        "details": "override transfer to prevent transfer of calimed tokens"
      },
      "safeTransferFrom(address,address,uint256,bytes)": {
        "details": "override transfer to prevent transfer of calimed tokens"
      },
      "setApprovalForAll(address,bool)": {
        "details": "See {IERC721-setApprovalForAll}."
      },
      "supportsInterface(bytes4)": {
        "details": "See {IERC165-supportsInterface}."
      },
      "symbol()": {
        "details": "See {IERC721Metadata-symbol}."
      },
      "tokenByIndex(uint256)": {
        "details": "See {IERC721Enumerable-tokenByIndex}."
      },
      "tokenOfOwnerByIndex(address,uint256)": {
        "details": "See {IERC721Enumerable-tokenOfOwnerByIndex}."
      },
      "totalSupply()": {
        "details": "See {IERC721Enumerable-totalSupply}."
      },
      "transferFrom(address,address,uint256)": {
        "details": "override transfer to prevent transfer of calimed tokens"
      },
      "transferOwnership(address)": {
        "details": "Transfers ownership of the contract to a new account (`newOwner`). Can only be called by the current owner."
      }
    },
    "version": 1
  },
  "userdoc": {
    "kind": "user",
    "methods": {
      "isApprovedForAll(address,address)": {
        "notice": "Override isApprovedForAll to whitelist user's OpenSea proxy accounts to enable gas-less listings."
      }
    },
    "version": 1
  }
}