{
  "contractName": "PizzaOven",
  "abi": [
    {
      "inputs": [
        {
          "internalType": "address",
          "name": "_nftAddress",
          "type": "address"
        }
      ],
      "stateMutability": "nonpayable",
      "type": "constructor"
    },
    {
      "anonymous": false,
      "inputs": [
        {
          "indexed": true,
          "internalType": "address",
          "name": "previousOwner",
          "type": "address"
        },
        {
          "indexed": true,
          "internalType": "address",
          "name": "newOwner",
          "type": "address"
        }
      ],
      "name": "OwnershipTransferred",
      "type": "event"
    },
    {
      "inputs": [],
      "name": "MAX_SUPPLY",
      "outputs": [
        {
          "internalType": "uint256",
          "name": "",
          "type": "uint256"
        }
      ],
      "stateMutability": "view",
      "type": "function",
      "constant": true
    },
    {
      "inputs": [],
      "name": "mintPrice",
      "outputs": [
        {
          "internalType": "uint256",
          "name": "",
          "type": "uint256"
        }
      ],
      "stateMutability": "view",
      "type": "function",
      "constant": true
    },
    {
      "inputs": [],
      "name": "nftAddress",
      "outputs": [
        {
          "internalType": "address",
          "name": "",
          "type": "address"
        }
      ],
      "stateMutability": "view",
      "type": "function",
      "constant": true
    },
    {
      "inputs": [],
      "name": "owner",
      "outputs": [
        {
          "internalType": "address",
          "name": "",
          "type": "address"
        }
      ],
      "stateMutability": "view",
      "type": "function",
      "constant": true
    },
    {
      "inputs": [],
      "name": "renounceOwnership",
      "outputs": [],
      "stateMutability": "nonpayable",
      "type": "function"
    },
    {
      "inputs": [
        {
          "internalType": "address",
          "name": "newOwner",
          "type": "address"
        }
      ],
      "name": "transferOwnership",
      "outputs": [],
      "stateMutability": "nonpayable",
      "type": "function"
    },
    {
      "inputs": [],
      "name": "name",
      "outputs": [
        {
          "internalType": "string",
          "name": "",
          "type": "string"
        }
      ],
      "stateMutability": "pure",
      "type": "function",
      "constant": true
    },
    {
      "inputs": [],
      "name": "symbol",
      "outputs": [
        {
          "internalType": "string",
          "name": "",
          "type": "string"
        }
      ],
      "stateMutability": "pure",
      "type": "function",
      "constant": true
    },
    {
      "inputs": [
        {
          "internalType": "uint256",
          "name": "amount",
          "type": "uint256"
        },
        {
          "internalType": "address",
          "name": "_toAddress",
          "type": "address"
        }
      ],
      "name": "mint",
      "outputs": [],
      "stateMutability": "payable",
      "type": "function",
      "payable": true
    },
    {
      "inputs": [],
      "name": "withdraw",
      "outputs": [],
      "stateMutability": "nonpayable",
      "type": "function"
    }
  ],
  "bytecode": "0x608060405234801561001057600080fd5b5060405161081238038061081283398101604081905261002f916100bf565b6100383361006f565b6122b860025567013b7b21280e0000600355600180546001600160a01b0319166001600160a01b03929092169190911790556100ef565b600080546001600160a01b038381166001600160a01b0319831681178455604051919092169283917f8be0079c531659141344cd1fd0a4f28419497f9722a3daafe3b4186f6b6457e09190a35050565b6000602082840312156100d157600080fd5b81516001600160a01b03811681146100e857600080fd5b9392505050565b610714806100fe6000396000f3fe6080604052600436106100915760003560e01c8063715018a611610059578063715018a61461016b5780638da5cb5b1461018057806394bf804d1461019e57806395d89b41146101b1578063f2fde38b146101dd57600080fd5b806306fdde031461009657806332cb6b0c146100e25780633ccfd60b146101065780635bf8633a1461011d5780636817c76c14610155575b600080fd5b3480156100a257600080fd5b506040805180820190915260118152702834bd3d30a9bab83932b6b29027bb32b760791b60208201525b6040516100d991906105ec565b60405180910390f35b3480156100ee57600080fd5b506100f860025481565b6040519081526020016100d9565b34801561011257600080fd5b5061011b6101fd565b005b34801561012957600080fd5b5060015461013d906001600160a01b031681565b6040516001600160a01b0390911681526020016100d9565b34801561016157600080fd5b506100f860035481565b34801561017757600080fd5b5061011b61027f565b34801561018c57600080fd5b506000546001600160a01b031661013d565b61011b6101ac3660046105c0565b6102b5565b3480156101bd57600080fd5b5060408051808201909152600381526250534f60e81b60208201526100cc565b3480156101e957600080fd5b5061011b6101f836600461058c565b610472565b6000546001600160a01b031633146102305760405162461bcd60e51b815260040161022790610641565b60405180910390fd5b476102436000546001600160a01b031690565b6001600160a01b03166108fc829081150290604051600060405180830381858888f1935050505015801561027b573d6000803e3d6000fd5b5050565b6000546001600160a01b031633146102a95760405162461bcd60e51b815260040161022790610641565b6102b3600061050d565b565b60035434906102c4908461055d565b11156103125760405162461bcd60e51b815260206004820152601f60248201527f45746865722076616c75652073656e74206973206e6f7420636f7272656374006044820152606401610227565b600154604080516318160ddd60e01b815290516001600160a01b039092169160009183916318160ddd91600480820192602092909190829003018186803b15801561035c57600080fd5b505afa158015610370573d6000803e3d6000fd5b505050506040513d601f19601f8201168201806040525081019061039491906105a7565b6002549091506103a48583610676565b11156103f25760405162461bcd60e51b815260206004820181905260248201527f507572636861736520776f756c6420657863656564206d617820737570706c796044820152606401610227565b60005b8481101561046b57604051630355d30960e11b81526001600160a01b0385811660048301528416906306aba61290602401600060405180830381600087803b15801561044057600080fd5b505af1158015610454573d6000803e3d6000fd5b505050508080610463906106ad565b9150506103f5565b5050505050565b6000546001600160a01b0316331461049c5760405162461bcd60e51b815260040161022790610641565b6001600160a01b0381166105015760405162461bcd60e51b815260206004820152602660248201527f4f776e61626c653a206e6577206f776e657220697320746865207a65726f206160448201526564647265737360d01b6064820152608401610227565b61050a8161050d565b50565b600080546001600160a01b038381166001600160a01b0319831681178455604051919092169283917f8be0079c531659141344cd1fd0a4f28419497f9722a3daafe3b4186f6b6457e09190a35050565b6000610569828461068e565b9392505050565b80356001600160a01b038116811461058757600080fd5b919050565b60006020828403121561059e57600080fd5b61056982610570565b6000602082840312156105b957600080fd5b5051919050565b600080604083850312156105d357600080fd5b823591506105e360208401610570565b90509250929050565b600060208083528351808285015260005b81811015610619578581018301518582016040015282016105fd565b8181111561062b576000604083870101525b50601f01601f1916929092016040019392505050565b6020808252818101527f4f776e61626c653a2063616c6c6572206973206e6f7420746865206f776e6572604082015260600190565b60008219821115610689576106896106c8565b500190565b60008160001904831182151516156106a8576106a86106c8565b500290565b60006000198214156106c1576106c16106c8565b5060010190565b634e487b7160e01b600052601160045260246000fdfea2646970667358221220340c0e85559c17fe37b042293c49fb64c73002856ad4de1a13e420d20e4acac764736f6c63430008070033",
  "immutableReferences": {},
  "source": "pragma solidity ^0.8.0;\n\nimport \"@openzeppelin/contracts/access/Ownable.sol\";\nimport \"@openzeppelin/contracts/utils/Strings.sol\";\nimport \"./PizzaSupreme.sol\";\n\ncontract PizzaOven is Ownable {\n    using Strings for string;\n    using SafeMath for uint256;\n\n    address public nftAddress;\n    uint256 public MAX_SUPPLY;\n    uint256 public mintPrice;\n\n\n    constructor(address _nftAddress) {\n        MAX_SUPPLY = 8888;\n        mintPrice = 88800000000000000; // 0.0888 ETH\n        nftAddress = _nftAddress;\n    }\n\n    function name() external pure returns (string memory) {\n        return \"PizzaSupreme Oven\";\n    }\n\n    function symbol() external pure returns (string memory) {\n        return \"PSO\";\n    }\n\n    function mint(uint256 amount, address _toAddress) external payable {\n        require(mintPrice.mul(amount) <= msg.value, \"Ether value sent is not correct\");\n\n        \n        PizzaSupreme pizzaSupreme = PizzaSupreme(nftAddress);\n        uint256 currentSupply = pizzaSupreme.totalSupply();\n        require(currentSupply + amount <= MAX_SUPPLY, \"Purchase would exceed max supply\");\n        \n        for (uint256 i = 0; i < amount; i++) {\n            pizzaSupreme.factoryMint(_toAddress);\n        }\n    }\n\n    function withdraw() external onlyOwner {\n        uint256 balance = address(this).balance;\n        payable(owner()).transfer(balance);\n    }\n}",
  "sourcePath": "/Users/marko/dev/pizzaParty/contracts/PizzaOven.sol",
  "compiler": {
    "name": "solc",
    "version": "0.8.7+commit.e28d00a7.Emscripten.clang"
  },
  "schemaVersion": "3.3.4",
  "updatedAt": "2021-08-25T14:47:31.860Z",
  "networkType": "ethereum",
  "devdoc": {
    "kind": "dev",
    "methods": {
      "owner()": {
        "details": "Returns the address of the current owner."
      },
      "renounceOwnership()": {
        "details": "Leaves the contract without owner. It will not be possible to call `onlyOwner` functions anymore. Can only be called by the current owner. NOTE: Renouncing ownership will leave the contract without an owner, thereby removing any functionality that is only available to the owner."
      },
      "transferOwnership(address)": {
        "details": "Transfers ownership of the contract to a new account (`newOwner`). Can only be called by the current owner."
      }
    },
    "version": 1
  },
  "userdoc": {
    "kind": "user",
    "methods": {},
    "version": 1
  }
}